S00C00006C6162362E73726563B3
S11300000C94FE000C9424010C9424010C942401FF
S11300100C9424010C9424010C9424010C942401C8
S11300200C9424010C9424010C9424010C942401B8
S11300300C9424010C9424010C9424010C942401A8
S11300400C9424010C9424010C9424010C94240198
S11300500C9424010C9424010C9424010C94240188
S11300600C9424010C9424010C9424010C94240178
S11300700C9424010C9424010C9424010C94240168
S11300800C9424010C9424010C9424010C94240158
S11300900C9424010C9424010C9424010C94240148
S11300A00C9424010C9424010C9424010C94240138
S11300B00C9424010C9424010C9424010C94240128
S11300C00C9424010C9424010C9424010C94240118
S11300D00C9424010C9424010C9424010C94240108
S11300E00C9424010C9424010C9424010C942401F8
S11300F00C9424010C9424010C9424010C942401E8
S11301000C9424010C9424010C9424010C942401D7
S11301100C9424010C9424010C9424010C942401C7
S11301200C9424010C9424010C9424010C942401B7
S11301300C9424010C9424010C9424010C942401A7
S11301400C9424010C9424010C9424010C94240197
S11301500C9424010C9424010C9424010C94240187
S11301600C9424010C9424010C9424010C94240177
S11301700C9424010C9424010C9424010C94240167
S11301800C9424010C9424010C9424010C94240157
S11301900C9424010C9424010C9424010C94240147
S11301A00C9424010C9424010C9424010C94240137
S11301B00C9424010C9424010C9424010C94240127
S11301C00C9424010C9424010C9424010C94240117
S11301D00C9424010C9424010C9424010C94240107
S11301E00C9424010C9424010C9424010C942401F7
S11301F00C9424010C9424010C94240111241FBE9A
S1130200CFEFCDBFDFE3DEBF00E00CBF18BE19BEE9
S11302101ABE1BBE12E2A0E0B0E2EEE6F6E000E099
S11302200BBF02C007900D92A230B107D9F71BBED5
S113023022E2A2E0B2E201C01D92A530B207E1F7CA
S11302400E9472010C9435030C94000089E08093A1
S1130250000380E28093010388E180930203089500
S11302601092200810922108109226081092270854
S113027081E080930008089588E08093610694E00B
S11302809093620698E19093A40993E39093A5094F
S113029094E89093A60990EE9093A709809365063D
S11302A00895E1EAF9E080818823ECF78091A009C0
S11302B00895E1EAF9E0908195FFFDCF8093A009CC
S11302C0089582E080935000E1E5F0E0808181FFB1
S11302D0FDCF88ED84BF91E09093400084BF1092DD
S11302E0410008950E9461010E9430010E9426018C
S11302F00E943C0188E08093010680E880934106D7
S11303008093450600E218E0CCE0D8E00F2EFAE135
S1130310EF2EF3E0FF2EF02D0F2EF2E0CF2EF2E2BF
S1130320DF2EF02D0F2EF6E2AF2EF8E0BF2EF02DCB
S11303300E945101809302220E945901809102225D
S11303408335D1F0873521F19DEC980F9230A0F1DF
S1130350853409F449C0823509F446C09CEA980FF3
S1130360923008F47CC19AEC980F933008F477C16A
S11303708F7E8934E9F673C1809100209091012029
S11303809195819591098093002090930120D0CF7D
S113039080910020909101208230910531F487E60C
S11303A090E0D5018D939C9307C00296A9F580E750
S11303B090E0F50180839183809102228333A1F43C
S11303C080910020909101208230910531F48FE5D5
S11303D090E0D5018D939C9307C00296A9F587E61A
S11303E090E0F50180839183809102228534A1F409
S11303F080910020909101208230910531F48BE5A9
S113040090E0D5018D939C9307C00296A9F581E6EF
S113041090E0F50180839183809102228433A1F4DA
S113042080910020909101208230910531F485E57E
S113043090E0D5018D939C9307C00296A9F58AE5B7
S113044090E0F50180839183809102228235A1F4AA
S113045080910020909101208230910531F48DE447
S113046090E0D5018D939C9307C00296A9F585E58C
S113047090E0F50180839183809102228435A1F478
S113048080910020909101208230910531F488E41C
S113049090E0D5018D939C9307C00296A9F58FE453
S11304A090E0F50180839183809102228633A1F448
S11304B080910020909101208230910531F485E4EF
S11304C090E0D5018D939C9307C00296A9F58BE427
S11304D090E0F50180839183809102228935A1F413
S11304E080910020909101208230910531F48DE3B8
S11304F090E0D5018D939C9307C00296A9F587E4FB
S113050090E0F50180839183809102228733A1F4E6
S113051080910020909101208230910531F489E38B
S113052090E0D5018D939C9307C00296A9F582E4CF
S113053090E0F50180839183809102228535A1F4B6
S113054080910020909101208230910531F486E35E
S113055090E0D5018D939C9307C00296A9F58EE394
S113056090E0F50180839183809102228833A1F485
S113057080910020909101208230910531F482E332
S113058090E0D5018D939C9307C00296E9F48AE329
S113059090E0F50180839183809102228934A1F453
S11305A080910020909101208230910531F48EE2F7
S11305B090E0D5018D939C9307C0029629F486E3BD
S11305C090E0F50180839183D8011D921C92809163
S11305D00020909101208230910509F03CC013C0A5
S11305E0888180FFFDCF288381919191D7018D93DC
S11305F09C93D8011D921C92CE16DF0689F74150B8
S1130600510921F406C04BE450E021E0E2E0F0E2BD
S1130610E7CF8091002090910120029609F088CEC6
S113062014C0888180FFFDCF9883F7012083318334
S1130630D8011D921C92205F3F4F2115B0E13B076A
S113064081F74150510921F473CE4BE450E091E01D
S113065020E030E0E6CF029609F06ACEF6CF809132
S11106600222833309F0D8CEABCEF894FFCF3C
S113066E02000008320864089608C808FA082C0923
S113067E5E098F09C009F109220A520A820AB10AD7
S113068EE00A0F0B3D0B6B0B980BC50BF10B1C0CFF
S113069E470C710C9A0CC30CEB0C120D390D5F0D3B
S11306AE830DA70DCA0DED0D0E0E2E0E4E0E6C0EF5
S11306BE8A0EA60EC10EDC0EF50E0D0F240F3A0F88
S11306CE4F0F630F760F870F980FA70FB50FC20F3B
S11306DECD0FD80FE10FE90FF00FF50FF90FFD0F46
S11306EEFE0FFF0FFE0FFD0FF90FF50FF00FE90FC1
S11306FEE10FD80FCD0FC20FB50FA70F980F870FAD
S113070E760F630F4F0F3A0F240F0D0FF50EDC0EFD
S113071EC10EA60E8A0E6C0E4E0E2E0E0E0EED0D84
S113072ECA0DA70D830D5F0D390D120DEB0CC30C05
S113073E9A0C710C470C1C0CF10BC50B980B6B0B24
S113074E3D0B0F0BE00AB10A820A520A220AF10982
S113075EC0098F095E092C09FA08C80896086408AE
S113076E32080008CD079B07690737070507D3062C
S113077EA10670063F060E06DD05AD057D054E0588
S113078E1F05F004C204940467043A040E04E30340
S113079EB8038E0365033C031403ED02C602A002E4
S11307AE7C02580235021202F101D101B10193010A
S11307BE750159013E0123010A01F200DB00C50057
S11307CEB0009C0089007800670058004A003D0084
S11307DE320027001E0016000F000A000600020059
S11307EE010000000100020006000A000F001600BE
S11307FE1E00270032003D004A00580067007800B2
S113080E89009C00B000C500DB00F2000A01230140
S113081E3E01590175019301B101D101F101120299
S113082E350258027C02A002C602ED0214033C03F8
S113083E65038E03B803E3030E043A0467049404B9
S113084EC204F0041F054E057D05AD05DD050E063B
S113085E3F067006A106D3060507370769079B07EF
S105086ECD07B0
S9030000FC
